:020000040800F2
:10000000380600209D0100083F090008850500080A
:100010003D090008CF040008970B0008000000000D
:10002000000000000000000000000000310A00088D
:10003000D104000800000000410900084D0A000832
:10004000B7010008B7010008B7010008B7010008B0
:10005000B7010008B7010008B7010008B7010008A0
:10006000B7010008B7010008B7010008B701000890
:10007000B7010008B7010008B7010008B701000880
:10008000B7010008B7010008B7010008B701000870
:10009000B7010008B7010008B7010008B701000860
:1000A000B7010008B7010008B7010008B701000850
:1000B000B7010008B7010008B7010008B701000840
:1000C000B7010008B7010008B7010008B701000830
:1000D000B7010008310B0008B7010008B70100089C
:1000E000B7010008B7010008B7010008B701000810
:1000F000B7010008B7010008B7010008B701000800
:10010000B7010008B7010008B7010008B7010008EF
:10011000B7010008B7010008B7010008B7010008DF
:10012000B7010008B7010008B7010008B7010008CF
:10013000B7010008B7010008B7010008B7010008BF
:10014000B7010008B7010008B7010008B7010008AF
:10015000B7010008B7010008B7010008B70100089F
:10016000B7010008B7010008B7010008B70100088F
:10017000B7010008B7010008B7010008000000003F
:10018000B7010008B7010008DFF80CD000F07AF8DA
:1001900000480047B90B0008380600200648804791
:1001A00006480047FEE7FEE7FEE7FEE7FEE7FEE75C
:1001B000FEE7FEE7FEE7FEE7210B000889010008E5
:1001C0002DE9F05F0546002092469B46884606468C
:1001D000814640241BE0284641464746224600F01F
:1001E00041F853465A46C01A914110D31146184659
:1001F000224600F028F82D1A67EB01084F462246E8
:100200000120002100F01FF817EB00094E41201ECD
:10021000A4F10104DFDC484631462A464346BDE8E6
:10022000F09FD2B201E000F8012B491EFBD27047CB
:100230000022F6E710B513460A4604461946FFF7B2
:10024000F0FF204610BD202A04DB203A00FA02F11C
:10025000002070479140C2F1200320FA03F31943B4
:1002600090407047202A04DB203A21FA02F0002156
:10027000704721FA02F3D040C2F1200291400843B6
:1002800019467047064C074D06E0E06840F0010350
:1002900094E8070098471034AC42F6D3FFF778FF94
:1002A000FC0C00081C0D00082DE9F04107461C4617
:1002B00015460E463020DDF8188000F0DDFC0028E1
:1002C0001CD00F4901600F4941600F4981600F49FF
:1002D000C1600F49C761016180F82060002145625B
:1002E00001854485C021C0F82C8081824FF40051E3
:1002F000C182891C018342F228014183BDE8F0815B
:100300001504000807040008BB030008F3030008F5
:100310007304000810B588B0044618216846FFF73A
:1003200087FF1548016841F00201016000686946D5
:1003300000F0020006902069009001200190032047
:100340000290002003900490206800F01CF960697E
:1003500000906946606800F016F9A069009069464F
:10036000A06800F010F9E06900906946E06800F0CC
:100370000AF908B010BD00003038024010B504463C
:10038000C06AFFF7C7FF0021E06A00F0D9F800213A
:10039000E06A00F03FFB0121E06A00F042FB2368C5
:1003A0004FF4807200212046984720462368BDE81C
:1003B00010404FF404520021184770B50446C2693A
:1003C000406A0D46010900070023FFF7F9FEC0F35C
:1003D0000D01C0F38D3641F4804223682946204642
:1003E000984746F48042294620462368BDE870407D
:1003F000184700EB4103DA8CC2F30B02DA8403687E
:1004000042F44042184790F82020036800EB420273
:10041000928A18472DE9F041054617468846C06A7A
:1004200000F09EF8012000F06FF800244FF4004621
:1004300026FA04F13940E86A00F0F3FA012000F0EE
:1004400063F80021E86A00F0E5FA012000F05CF8AA
:100450000121E86A00F0DEFA641CE4B2102CE7D354
:100460004146E86A00F06CF8BDE8F041012000F078
:100470004BB810B5036804464FF4807200219847CA
:1004800023684FF40452002120469847012000F0D1
:1004900020F8A268002120469047012000F019F8BA
:1004A000E268012120469047012000F012F8E2683E
:1004B000022120469047012000F00BF862680021DD
:1004C00020469047BDE81040022000F002B8FEE749
:1004D0007047322170B5B0FBF1F2B0FBF1F501FBD2
:1004E00012044CF2503603E0304600F00DF86D1E59
:1004F000002DF9D1002C06D04FF47A706043BDE88E
:10050000704000F001B870BDC0EBC00000EB4000CF
:100510004FF0FF3101EBC0014FF0E02041610022BC
:100520008261016941F0010101610169CB0701D0DC
:10053000C903FAD5016921F00101016182617047A7
:1005400021B1012908D0022909D102E0816882691C
:100550008A61C168C06901E081688069886170470B
:1005600021B101290BD0022908D103E0028B816857
:1005700012048A61C168808B0004886170478168B9
:10058000008BF9E7FEE7F0B50A680F2692FAA2F2AF
:10059000B2FA82F303248AE001279F4015EA07029A
:1005A0007DD04D68012D01D0022D1BD18D6887684B
:1005B00092FAA2FCBCFA8CFC4FEA4C0C04FA0CFC3C
:1005C00027EA0C0792FAA2FCBCFA8CFC4FEA4C0C0E
:1005D00005FA0CF52F438760CD684768554397436C
:1005E0002F4347600F69D0F80CC092FAA2F5B5FA14
:1005F00085F54FEA450E04FA0EF52CEA050C92FA41
:10060000A2F5B5FA85F56D00AF404CEA070CC0F8CD
:100610000CC04D68022D33D192FAA2F5B5FA85F5DA
:10062000082D15D2D1F814C0056A92FAA2F7B7FACC
:1006300087F7BF0006FA07F7BD4392FAA2F7B7FAA9
:1006400087F7BF000CFA07FC45EA0C05056217E0C6
:10065000D1F814E0476A150A95FAA5FCBCFA8CFC9F
:100660004FEA8C0C06FA0CFC95FAA5F5B5FA85F55F
:10067000AD0027EA0C070EFA05FE47EA0E074762AF
:100680004D68076892FAA2FCBCFA8CFC4FEA4C0C4D
:1006900004FA0CFE27EA0E0792FAA2F200E005E047
:1006A000B2FA82F2520095402F4307605B1C0A6841
:1006B0001546DA407FF470AF0020F0BD4FF47A7138
:1006C000B0FBF1F14FF0E020491E41610021816152
:1006D00005210161704710B5044600F05DF9206006
:1006E00000F030F9606000F03BF9A060606800F055
:1006F00045F9E06010BD0000014908607047000046
:10070000000000207FB50446C0680D460126C0F3F6
:100710004030C0BBE9686868AA6908432969114389
:100720000843E16849F20C6291430843E060A8681D
:10073000216921F44051014321616869616921F413
:100740004071014361616846FFF7C5FF0F4884426D
:1007500008D00F4884420DD00E4884420AD00E487B
:10076000844201D1039906E00C48844202D00C482F
:10077000844208D1029931B12B6823B1002620466A
:10078000AA6900F00FF804B0304670BD00100140B7
:10079000004400400048004000140140004C00406C
:1007A000005000402DE9F04106461920A1FB000150
:1007B0001F46002364243225B2F5004F27D0BB0F1B
:1007C000BA00FFF7FDFC0146B0FBF4F06FF0180231
:1007D000504301EB800005EB0010B0FBF4F000F09B
:1007E000F002B1FBF4F002EB0012B1FBF4F06FF099
:1007F0001803584301EB800005EB0010B0FBF4F048
:1008000000F00F00104480B2B060BDE8F081FA192A
:100810005B41FFF7D5FC0146B0FBF4F00201B1FBF0
:10082000F4F06FF01803584301EB800005EBC000B3
:10083000B0FBF4F000F0F80002EB4002B1FBF4F082
:10084000584301EB800005EBC000B0FBF4F000F072
:100850000700D7E710B58EB01C216846FFF7E8FC0B
:10086000182107A8FFF7E4FC2F48016841F01001A8
:100870000160006800F010000D902B4814380168EA
:1008800041F0010101600068002400F001000D90BA
:100890004FF4C0600790022008900320CDE90904BE
:1008A0000720CDE90B4007A92048FFF76CFE204840
:1008B0000068C0F30220011D072901D2002000E0DA
:1008C000C01E04FA00F108011A4981F80004194910
:1008D00020202139C1F800014FF4E130CDE90004B6
:1008E0000C200294CDE9034005940694124C69460D
:1008F0002046FFF707FF54F8100F20F4904001C482
:10090000206820F02A0044F80809206840F40050CC
:10091000C4F8000054E8000F40F0200044E8000153
:100920000029F7D10EB010BD44380240000002404B
:100930000CED00E025E000E000100140FEE7FEE7DE
:100940007047000004490968044A01F0F0010909F0
:10095000515CC8407047000008380240E40C0008B1
:1009600004490968044A01F4E05102EB9121097835
:10097000C840704708380240F40C00080449096870
:10098000044A01F4604102EB51310978C8407047D4
:1009900008380240F40C00080748006810F00C0109
:1009A000064807D0042904D0082903D1082000F004
:1009B00009B8034870470000083802400024F400DA
:1009C00040787D0110B5104A04460020116811F4EA
:1009D00080030E4903D0B3F5800F00D10C49082CD9
:1009E00011D1106800F03F00B1FBF0F01168C1F3C5
:1009F000881148431168012201F4403102EB114192
:100A00004900B0FBF1F010BD043802400024F400AE
:100A100040787D014268406909B1906170470004E7
:100A2000FBE70268006909B1906170470004FBE7C9
:100A30007047000004488178012901D000207047E8
:100A400000218170012070472400002070470000C1
:100A500070B52D48016821F0070141F005010160E2
:100A6000016801F007010529FAD12849086840F416
:100A7000804008602648026842F4803202600268C2
:100A8000C2F34042002AFAD0214A224B121D1468B8
:100A9000214D2C4023431360136823F4403313602B
:100AA000026842F0807202600268C2F34062002A6B
:100AB000FAD04868C0F380300028FAD014480830D3
:100AC000016821F0F0010160016821F4E05141F476
:100AD000A0510160016821F4604141F400410160CE
:100AE000016821F0030141F002010160016801F099
:100AF0000C010829FAD1094C2046FFF7DFFD2046FA
:100B0000BDE87040FFF7F8BD003C024000700040B7
:100B100000380240195440000080BFFF007A030AE9
:100B20000248016841F470010160704788ED00E0FF
:100B3000AFF3008030B5154B1868C0F340100028A3
:100B400023D058680024C1B211480125027822B18F
:100B5000012A07D0022A11D014E0FF2912D1057012
:100B600044700FE00A4C4278E41CA154521CD1B2EC
:100B70004170052906D30221017003E0FE2900D14E
:100B8000857004706FF02000186030BD00100140C7
:100B9000240000207047FEE702E008C8121F08C1C9
:100BA000002AFAD170477047002001E001C1121FEE
:100BB000002AFBD170470000284808B5016841F4BD
:100BC00080410160006800F4804000902348001FCD
:100BD000016841F080510160006800F08050009091
:100BE0001F4801684FF6FF0211401E4A41F4407150
:100BF000114301600068C0F30220C0F10702042A1B
:100C000000D90422011D072901D2002000E0C01EE6
:100C100001219140491E81400801134981F8140DBA
:100C2000FFF716FFFFF716FE1048009000234FF461
:100C30007A7201210E48FFF737FB040001D0FFF75D
:100C40009DFB2169204688470A4C00BFFFF7F2FE52
:100C50000128FBD12078FFF79DFFF7E744380240D9
:100C60000CED00E00000FA050FE000E004000020B9
:100C700040787D0127000020F0B50B30154D20F0A5
:100C800007010024144A0FE003688B420BD38B4208
:100C900005D95E1A43184768C3E9006700E0436856
:100CA000136002C004E0021D10680028ECD1204649
:100CB000002802D1286808B10020F0BD064A074884
:100CC0001060074A121A22F00702C0E9002401202E
:100CD0002860D7E7300000202C0000203C000020D6
:100CE00038020020000000000000000001020304A0
:100CF0000607080900000000010203041C0D00089B
:100D00000000002034000000980B0008500D00087F
:100D10003400002004060000A80B00080024F400A2
:100D200000040240000402400004024000040240AB
:100D300000100000002000000040000000800000C3
:100D400000000000000000000000000000000000A3
:040000050800018965
:00000001FF
