:020000040800F2
:10000000400600209D010008CB09000813060008E7
:10001000C90900085D050008050C00080000000083
:10002000000000000000000000000000BD0A000801
:100030005F05000800000000CD090008BF0A0008A5
:10004000B7010008B7010008B7010008B7010008B0
:10005000B7010008B7010008B7010008B7010008A0
:10006000B7010008B7010008B7010008B701000890
:10007000B7010008B7010008B7010008B701000880
:10008000B7010008B7010008B7010008B701000870
:10009000B7010008B7010008B7010008B701000860
:1000A000B7010008B7010008B7010008B701000850
:1000B000B7010008B7010008B7010008B701000840
:1000C000B7010008B7010008B7010008B701000830
:1000D000B7010008A10B0008B7010008B70100082C
:1000E000B7010008B7010008B7010008B701000810
:1000F000B7010008B7010008B7010008B701000800
:10010000B7010008B7010008B7010008B7010008EF
:10011000B7010008B7010008B7010008B7010008DF
:10012000B7010008B7010008B7010008B7010008CF
:10013000B7010008B7010008B7010008B7010008BF
:10014000B7010008B7010008B7010008B7010008AF
:10015000B7010008B7010008B7010008B70100089F
:10016000B7010008B7010008B7010008B70100088F
:10017000B7010008B7010008B7010008000000003F
:10018000B7010008B7010008DFF80CD000F07AF8DA
:1001900000480047250C000840060020064880471C
:1001A00006480047FEE7FEE7FEE7FEE7FEE7FEE75C
:1001B000FEE7FEE7FEE7FEE7910B00088901000875
:1001C0002DE9F05F0546002092469B46884606468C
:1001D000814640241BE0284641464746224600F01F
:1001E00041F853465A46C01A914110D31146184659
:1001F000224600F028F82D1A67EB01084F462246E8
:100200000120002100F01FF817EB00094E41201ECD
:10021000A4F10104DFDC484631462A464346BDE8E6
:10022000F09FD2B201E000F8012B491EFBD27047CB
:100230000022F6E710B513460A4604461946FFF7B2
:10024000F0FF204610BD202A04DB203A00FA02F11C
:10025000002070479140C2F1200320FA03F31943B4
:1002600090407047202A04DB203A21FA02F0002156
:10027000704721FA02F3D040C2F1200291400843B6
:1002800019467047064C074D06E0E06840F0010350
:1002900094E8070098471034AC42F6D3FFF778FF94
:1002A0005C0D00087C0D000870B505460C462C203E
:1002B00000F012FD00280BD006490160064941609C
:1002C000064981600649C16006498462C0E9041597
:1002D00070BD000039040008FD0300088F0300080A
:1002E000DD0300089904000810B588B00446182101
:1002F0006846FFF79DFF1548016841F00201016063
:100300000068694600F00200069020690090012014
:10031000019003200290002003900490206800F0D8
:1003200079F9606900906946606800F073F9A06926
:1003300000906946A06800F06DF9E0690090694698
:10034000E06800F067F908B010BD000030380240E6
:1003500010B50446806AFFF7C7FF0021A06A00F0CD
:1003600036F90021A06A00F09BFB0121A06A00F091
:100370009EFB23684FF48072002120469847204658
:100380002368BDE810404FF40452002118472DE9BE
:10039000F04115460E460446426929092807002304
:1003A000FFF70EFFC0F30D01C0F38D3726B1012E0C
:1003B00012D0022E02D100E0E561256241F48042B4
:1003C000236831462046984747F48042314620460C
:1003D0002368BDE8F0411847E561EFE7C2F30B027F
:1003E00021B1012908D0022902D100E08284C2840F
:1003F000036842F4404218478284F9E730B40D4B59
:1004000049B1012910D0022912D133F812204283B8
:10041000036830BC184733F81240048333F81220C5
:10042000428322460368F4E733F812200283EFE7A1
:1004300030BC7047040000202DE9F0410546174606
:100440008846806A00F0D3F8012000F0A4F8002468
:100450004FF4004626FA04F13940A86A00F027FB61
:10046000012000F098F80021A86A00F019FB012093
:1004700000F091F80121A86A00F012FB641CE4B2BC
:10048000102CE7D34146A86A00F0A1F8BDE8F0417E
:10049000012000F080B800002DE9F041044606A8D4
:1004A00090E8E0002C4830F81110218330F8120059
:1004B0006083C4E90735C6F30B00A084C7F30B00C3
:1004C000E08423684FF48072002120469847236817
:1004D0004FF40452002120469847012000F040F8D4
:1004E000A36801212046E2699847012000F038F80E
:1004F000A36802212046226A9847012000F030F8C4
:10050000E368A28C012120469847012000F028F8DA
:10051000E368E28C022120469847012000F020F891
:100520006368227E012120469847012000F018F8D8
:100530006368A27E022120469847012000F010F84F
:1005400023684FF40052002120469847BDE8F0414F
:10055000012000F005B8000004000020FEE770470D
:10056000322170B5B0FBF1F2B0FBF1F501FB1204E2
:100570004CF2503603E0304600F00DF86D1E002DB1
:10058000F9D1002C06D04FF47A706043BDE870407A
:1005900000F001B870BDC0EBC00000EB40004FF0B0
:1005A000FF3101EBC0014FF0E02041610022826188
:1005B000016941F0010101610169CB0701D0C90363
:1005C000FAD5016921F0010101618261704721B111
:1005D000012908D0022909D102E0816882698A6173
:1005E000C168C06901E0816880698861704721B194
:1005F00001290BD0022908D103E0028B8168120483
:100600008A61C168808B0004886170478168008BB3
:10061000F9E7FEE7F0B50A680F2692FAA2F2B2FAFD
:1006200082F303248AE001279F4015EA07027DD068
:100630004D68012D01D0022D1BD18D68876892FA7B
:10064000A2FCBCFA8CFC4FEA4C0C04FA0CFC27EA26
:100650000C0792FAA2FCBCFA8CFC4FEA4C0C05FA8F
:100660000CF52F438760CD684768554397432F4368
:1006700047600F69D0F80CC092FAA2F5B5FA85F57B
:100680004FEA450E04FA0EF52CEA050C92FAA2F593
:10069000B5FA85F56D00AF404CEA070CC0F80CC008
:1006A0004D68022D33D192FAA2F5B5FA85F5082DE1
:1006B00015D2D1F814C0056A92FAA2F7B7FA87F7F3
:1006C000BF0006FA07F7BD4392FAA2F7B7FA87F719
:1006D000BF000CFA07FC45EA0C05056217E0D1F8EB
:1006E00014E0476A150A95FAA5FCBCFA8CFC4FEA9F
:1006F0008C0C06FA0CFC95FAA5F5B5FA85F5AD005B
:1007000027EA0C070EFA05FE47EA0E0747624D6816
:10071000076892FAA2FCBCFA8CFC4FEA4C0C04FA73
:100720000CFE27EA0E0792FAA2F200E005E0B2FA08
:1007300082F2520095402F4307605B1C0A68154601
:10074000DA407FF470AF0020F0BD4FF47A71B0FB57
:10075000F1F14FF0E020491E416100218161052146
:100760000161704710B5044600F05CF9206000F0AC
:100770002FF9606000F03AF9A060606800F044F979
:10078000E06010BD014908607047000000000020D3
:100790007FB50446C0680D460126C0F34030C0BB9B
:1007A000E9686868AA690843296911430843E16850
:1007B00049F20C6291430843E060A868216921F482
:1007C0004051014321616869616921F4407101432D
:1007D00061616846FFF7C6FF0F48844208D00F48A2
:1007E00084420DD00E4884420AD00E48844201D182
:1007F000039906E00C48844202D00C48844208D198
:10080000029931B12B6823B100262046AA6900F075
:100810000FF804B0304670BD0010014000440040A5
:100820000048004000140140004C004000500040CF
:100830002DE9F04106461920A1FB00011F460023C7
:1008400064243225B2F5004F27D0BB0FBA00FFF762
:10085000B7FC0146B0FBF4F06FF01802504301EB17
:10086000800005EB0010B0FBF4F000F0F002B1FBEB
:10087000F4F002EB0012B1FBF4F06FF018035843F0
:1008800001EB800005EB0010B0FBF4F000F00F006E
:10089000104480B2B060BDE8F081FA195B41FFF707
:1008A0008FFC0146B0FBF4F00201B1FBF4F06FF0F5
:1008B0001803584301EB800005EBC000B0FBF4F0D7
:1008C00000F0F80002EB4002B1FBF4F0584301EBFA
:1008D000800005EBC000B0FBF4F000F00700D7E7A4
:1008E00010B58EB01C216846FFF7A2FC182107A89E
:1008F000FFF79EFC2F48016841F01001016000687D
:1009000000F010000D902B481438016841F00101EF
:1009100001600068002400F001000D904FF4C060F9
:100920000790022008900320CDE909040720CDE9B3
:100930000B4007A92048FFF76DFE20480068C0F370
:100940000220011D072901D2002000E0C01E04FA88
:1009500000F108011A4981F80004194920202139C1
:10096000C1F800014FF4E130CDE900040C200294FD
:10097000CDE9034005940694124C69462046FFF7E2
:1009800007FF54F8100F20F4904001C4206820F0B5
:100990002A0044F80809206840F40050C4F8000018
:1009A00054E8000F40F0200044E800010029F7D18E
:1009B0000EB010BD44380240000002400CED00E0D3
:1009C00025E000E000100140FEE7FEE77047000070
:1009D00004490968044A01F0F0010909515CC84062
:1009E0007047000008380240440D000804490968B7
:1009F000044A01F4E05102EB91210978C8407047A4
:100A000008380240540D000804490968044A01F4FA
:100A1000604102EB51310978C84070470838024004
:100A2000540D00080748006810F00C01064807D074
:100A3000042904D0082903D1082000F009B803488C
:100A400070470000083802400024F40040787D011F
:100A500010B5104A04460020116811F480030E49B5
:100A600003D0B3F5800F00D10C49082C11D11068C8
:100A700000F03F00B1FBF0F01168C1F3881148436A
:100A80001168012201F4403102EB11414900B0FB31
:100A9000F1F010BD043802400024F40040787D01DC
:100AA0004268406909B1906170470004FBE7026841
:100AB000006909B1906170470004FBE77047704717
:100AC00070B52D48016821F0070141F00501016072
:100AD000016801F007010529FAD12849086840F4A6
:100AE000804008602648026842F480320260026852
:100AF000C2F34042002AFAD0214A224B121D146848
:100B0000214D2C4023431360136823F440331360BA
:100B1000026842F0807202600268C2F34062002AFA
:100B2000FAD04868C0F380300028FAD01448083062
:100B3000016821F0F0010160016821F4E05141F405
:100B4000A0510160016821F4604141F4004101605D
:100B5000016821F0030141F002010160016801F028
:100B60000C010829FAD1094C2046FFF7EEFD20467A
:100B7000BDE87040FFF706BE003C02400070004038
:100B800000380240195440000080BFFF007A030A79
:100B90000248016841F470010160704788ED00E08F
:100BA000AFF3008030B5154B1868C0F34010002833
:100BB00023D058680024C1B211480125027822B11F
:100BC000012A07D0022A11D014E0FF2912D10570A2
:100BD00044700FE00A4C4278E41CA154521CD1B27C
:100BE0004170052906D30221017003E0FE2900D1DE
:100BF000857004706FF02000186030BD0010014057
:100C00002C000020FEE702E008C8121F08C1002ADD
:100C1000FAD170477047002001E001C1121F002A7D
:100C2000FBD170470EB52648016841F48041016050
:100C3000006800F4804000902148001F016841F0E6
:100C40008051016000681F4900F0805000900868E2
:100C50004FF6FF0210401C4A40F4407010430860F9
:100C60000868C0F30220C0F10702042A00D9042258
:100C7000011D072901D2002000E0C01E0121914082
:100C8000491E81400801114981F8140DFFF718FF32
:100C9000FFF726FE0E490F48FFF706FB040001D0C0
:100CA000FFF756FB4FF4FA614FF40060CDE90010F6
:100CB00002904B100122256911462046A847FEE705
:100CC000443802400CED00E00000FA050FE000E0BF
:100CD0000C00002040787D01F0B50B30154D20F060
:100CE00007010024144A0FE003688B420BD38B42A8
:100CF00005D95E1A43184768C3E9006700E04368F6
:100D0000136002C004E0021D10680028ECD12046E8
:100D1000002802D1286808B10020F0BD064A074823
:100D20001060074A121A22F00702C0E900240120CD
:100D30002860D7E73800002034000020440000205D
:100D40004002002000000000000000000102030437
:100D50000607080900000000010203047C0D0008DA
:100D6000000000203C000000060C0008B80D000840
:100D70003C00002004060000160C00080024F400CB
:100D8000C00000200220282000040240000402408D
:100D90000004024000040240001000000020000097
:100DA0000040000000800000000000000000000083
:080DB00000000000000000003B
:040000050800018965
:00000001FF
